:100000000C9406020C942E020C942E020C942E02D8
:100010000C942E020C942E020C942E020C942E02A0
:100020000C942E020C942E020C941F0A0C948E0A2F
:100030000C942E020C942E020C942E020C942E0280
:100040000C942E020C942E020C942E020C942E0270
:100050000C942E020C942E020C942E020C94D509B2
:100060000C942E020C942E020C942E020C942E0250
:100070000C942E020C942E020C942E020C942E0240
:100080000C942E020C942E020C942E020C942E0230
:100090000C942E020C942E020C942E020C942E0220
:1000A0000C942E020C942E020C942E0207060504CA
:1000B0000100080A0B0C0D09000000000000000000
:1000C00000000000000000002A002B0028000000B3
:1000D0000000000000000000000000000000000020
:1000E0000000000000000000000000000000000010
:1000F00000000000000000002C001E02340220025C
:1001000021022202240234002602270225022E02A6
:1001100036002D003700380027001E001F00200089
:100120002100220023002400250026003302330092
:1001300036022E00370238021F02040205020602B0
:100140000702080209020A020B020C020D020E024B
:100150000F021002110212021302140215021602FB
:100160001702180219021A021B021C021D022F009C
:100170003100300023022D02350004000500060086
:100180000700080009000A000B000C000D000E001B
:100190000F001000110012001300140015001600CB
:1001A0001700180019001A001B001C001D002F0268
:1001B00031023002350200000000000000000000A3
:1001C000000000000000000000000000000000002F
:1001D000000000000000000000000000000000001F
:1001E000000000000000000000000000000000000F
:1001F00000000000000000000000000000000000FF
:1002000000000000000000000000000000000000EE
:1002100000000000000000000000000000000000DE
:1002200000000000000000000000000000000000CE
:1002300000000000000000000000000000000000BE
:1002400000000000000000000000000000000000AE
:10025000000000000000000000000000000000009E
:10026000000000000000000000000000000000008E
:10027000000000000000000000000000000000007E
:10028000000000000000000000000000000000006E
:10029000000000000000000000000000000000005E
:1002A000000000000000000000000000000000004E
:1002B0000000000000000000080B00020202000025
:1002C00009040000010202000005240010010524B9
:1002D000010101042402060524060001070581032B
:1002E00010004009040100020A0000000705020294
:1002F00040000007058302400000040309041201C6
:100300000002EF0201404123368000010102030197
:1003100041726475696E6F204C4C43004172647584
:10032000696E6F204C656F6E6172646F0000000033
:10033000002300260029002C002F000000000200EE
:10034000090F0000030401000C0000000000000081
:100350000000000000000000000000000000250078
:1003600028002B002E003100000000002400270090
:100370002A002D00300004040404040304050202D2
:10038000020204030202020206060606060604042E
:1003900002020204040408020110408040102040C0
:1003A000804080080204018040201002011080106B
:1003B0002040402005010906A1018502050719E03A
:1003C00029E715002501750195088102050C9501A5
:1003D0007508150026FF00190029FF810005079503
:1003E000067508150026E700190029E78100C005F9
:1003F0000C0901A1018504150026FF0319002AFF3D
:1004000003950475108100C0C00C960E11241FBE08
:10041000CFEFDAE0DEBFCDBF11E0A0E0B1E0E0ED6C
:10042000F0E202C005900D92A237B107D9F722E0A1
:10043000A2E7B1E001C01D92AC33B207E1F712E0D0
:10044000C5E0D2E004C02197FE010E94150FC43020
:10045000D107C9F70E947A0D0C945B100C94000030
:10046000CF93DF9390E0FC01EB56FC4F24918A5828
:100470009C4FFC0184918823C1F090E0880F991F64
:10048000FC01E859FC4FC591D491FC01E65AFC4FA0
:10049000A591B4919FB7F8943881822F80958323DA
:1004A0008883EC91E22BEC939FBFDF91CF9108956D
:1004B000FC018091AF01882311F13FB7F89482E0ED
:1004C0008093E9002091F200822F90E0181619061F
:1004D00014F481E090E0882339F0289844E64093B2
:1004E000AE014091F1004083222339F02091F200C7
:1004F000211103C02BE62093E8003FBF08958FEF42
:100500009FEF0895CF93DF931F92CDB7DEB7698336
:10051000DC01ED91FC910280F381E02D41E050E09F
:10052000BE016F5F7F4F09950F90DF91CF910895C6
:1005300083E08093E9008091F200882319F08AE338
:100540008093E8000895CF93DF931F92CDB7DEB775
:10055000FC018485958597FD08C02FEF3FEF358717
:1005600024870F90DF91CF910895CE0101960E94CC
:100570005802019719F4898190E0F3CF8FEF9FEF34
:10058000F0CF0F931F93CF93DF931F92CDB7DEB7BA
:100590008C01FC018485958597FF0BC0CE010196E7
:1005A0000E945802019771F4898190E0F8019587C3
:1005B0008487F801848595850F90DF91CF911F91F5
:1005C0000F9108958FEF9FEFF1CFFC018485958502
:1005D00097FD0BC09FB7F89482E08093E90080916B
:1005E000F2009FBF90E0019608959FB7F89482E0D3
:1005F0008093E9008091F2009FBF90E00895282F3A
:1006000030E0F901E55CFC4F9491F901EB56FC4FA9
:1006100084912A583C4FF9012491222309F45BC0AC
:100620009923E9F091509F30D0F4E92FF0E0E55E96
:10063000FC4F0C94150F46034A032A033E03420362
:100640002F032F032F034D03530357035B03610352
:100650002F036503909180009F7790938000E22F95
:10066000F0E0EE0FFF1FE35DFC4FA591B491EC911C
:10067000E82381E090E089F580E008959091800082
:100680009F7DEBCF90918000977FE7CF94B59F77C8
:1006900094BDE5CF94B59F7DFBCF909190009F775F
:1006A00090939000DCCF909190009F7DF9CF909136
:1006B0009000977FF5CF9091C0009F779093C000F6
:1006C000CECF9091C0009F7DF9CF9091C200977FCF
:1006D0009093C200C4CF80E090E008953FB7F894B3
:1006E0008091AA019091AB01A091AC01B091AD01B4
:1006F00026B5A89B05C02F3F19F00196A11DB11D7D
:100700003FBFBA2FA92F982F8827BC01CD01620FB8
:10071000711D811D911D42E0660F771F881F991F73
:100720004A95D1F708958F929F92AF92BF92CF9240
:10073000DF92EF92FF924B015C010E946E036B010E
:100740007C010E946E036C197D098E099F09683E29
:10075000734081059105A8F321E0821A9108A10850
:10076000B10888EEC80E83E0D81EE11CF11C81148C
:100770009104A104B10429F7FF90EF90DF90CF908E
:10078000BF90AF909F908F90089540919B015091A2
:100790009C012091990130919A0142175307B4F4BA
:1007A0009091E8009570E1F39091E80092FD19C0F6
:1007B0008093F10080919B0190919C0101968F7331
:1007C0009927892B19F48EEF8093E80080919B0183
:1007D00090919C01019690939C0180939B0181E0F4
:1007E000089580E00895EF92FF920F931F93CF93A7
:1007F000DF93F82E192FE62E042F81E0860F880F45
:100800000E94C50383E00E94C503CF2DD12FEC0EBB
:10081000FD2EF11CCE15DF05B9F007FF13C0FE0158
:1008200084910E94C503182F80E00E94C503812394
:1008300021968111EFCFDF91CF911F910F91FF9002
:10084000EF9008958881EDCF81E0F5CFDF92EF92B0
:10085000FF920F931F93CF93DF93D82E8A01EB0162
:100860007B01E40EF51ECE15DF0559F0D7FE12C050
:10087000FE0184910E94C50321968111F4CF0FEFF0
:100880001FEFC801DF91CF911F910F91FF90EF9063
:10089000DF9008958881EECF2FB7F894877080930A
:1008A000E9009091E800892F807295FF04C0909133
:1008B000F20080E4891B2FBF089583E00E944C045E
:1008C00090E008957F928F929F92AF92BF92CF92C5
:1008D000DF92EF92FF920F931F93CF93DF93C82E77
:1008E0008B017A018091AF01811110C08FEF9FEFD2
:1008F000DF91CF911F910F91FF90EF90DF90CF90FC
:10090000BF90AF909F908F907F90089580919F01AE
:1009100080FF05C08091E00082608093E000CE2DD2
:10092000DF2DD12C8AEFB82E8C2D8770982E8C2D30
:100930008072882E8C2D8074782E9AE3A92E2097B1
:1009400019F4DD2009F452C08C2D0E944C04811151
:100950000AC0BA94BB2051F261E070E080E090E000
:100960000E949303ECCF8C171D0611F00CF08C2F16
:100970009FB7F8949092E9002091E80025FD02C00D
:100980009FBFDDCF282F30E0C21BD30B882029F07A
:100990008150A0F01092F100FBCFF801C7FC0AC013
:1009A000815050F041914093F100FACF449140932F
:1009B000F10031968150D0F7020F131FDD2021F096
:1009C000A092E800D12CDCCF8091E80085FD07C023
:1009D000A092E800DD24D394209791F2F3CF2097E2
:1009E00079F6772069F2A092E800CACF5D9884E694
:1009F00080939E01C7017CCFCF93DF93EC01809160
:100A00001201882331F083E00E946204181619064F
:100A100034F081E090E09B838A8380E090E0DF9176
:100A2000CF910895615030F02091F100FC012083B6
:100A30000196F8CF289884E68093AE010895AF928E
:100A4000BF92CF92DF92EF92FF920F931F93CF93BB
:100A5000DF936C017B018B01040F151FEB015E011D
:100A6000AE18BF08C017D10759F06991D601ED91B2
:100A7000FC910190F081E02DC6010995892B79F751
:100A8000C501DF91CF911F910F91FF90EF90DF9003
:100A9000CF90BF90AF9008958091910181110DC0CA
:100AA00082E080938D0184E080938E01109290010A
:100AB00010928F0181E0809391018DE891E008957B
:100AC0000F931F93CF93DF931F92CDB7DEB782E0D2
:100AD000898342E450E068EB72E080E80E942604DB
:100AE0000E944C05DC0112960D911C910115110517
:100AF00089F0D801ED91FC910280F381E02DBE01D7
:100B00006F5F7F4FC801099597FD04C0F80100850C
:100B10001185ECCF89810F90DF91CF911F910F91BB
:100B20000895DC01FB0112962C9112978481958126
:100B30002817190641F491818081813A31F49D7F13
:100B400081E0913009F080E008958132E1F79B3037
:100B500029F482811F968C9381E008959A3099F749
:100B6000828150968C93F8CFAF92BF92CF92DF9252
:100B7000EF92FF920F931F93CF93DF931F92CDB706
:100B8000DEB77C0169836A01590141E050E0BE0192
:100B90006F5F7F4FFC0183810E9462048C0197FD8F
:100BA0000BC0F7018381A501B60180640E94620435
:100BB000080F191F97FD8C01C8010F90DF91CF918D
:100BC0001F910F91FF90EF90DF90CF90BF90AF906B
:100BD0000895DC01FB0188E4808389E4818384E457
:100BE00082831D969C911D979F709F5B93831D969A
:100BF0008D919C9124E0969587952A95E1F78F70C9
:100C00008F5B848385E00895EF92FF920F931F938B
:100C1000CF93DF93FB012081213871F523812232AC
:100C200059F5DC0112964C91248135814217130647
:100C300019F5EC010B851C85F12CE12C0115110532
:100C400089F0F801448155816281738180E80E94B6
:100C500026048F3F980749F0E80EF91ED8010D9140
:100C60001C91ECCF81E08F87C701DF91CF911F915D
:100C70000F91FF90EF90089590E080E0F6CFCF9332
:100C8000DF93CDB7DEB769970FB6F894DEBF0FBE1E
:100C9000CDBFFC01DB018C918F5F8C939E012D5F9A
:100CA0003F4F8DE0D9011D928A95E9F729E029830C
:100CB00084E08A8391E09D8383E08E832A8721E20A
:100CC0002B879C879D879F8722E2288B27E02B8B91
:100CD00025E02C8B8E8B20E430E0388F2F8B998F82
:100CE00082818B8395858685998B8A8B83818068A9
:100CF0008D8B49E150E0BE016F5F7F4F80E00E9425
:100D0000260469960FB6F894DEBF0FBECDBFDF9103
:100D1000CF910895CF93DF9380918501811167C0B2
:100D200081E080937801809379012EE731E0309360
:100D30007B0120937A0110927D0110927C012DE1BC
:100D400031E030937501209374011092800110926C
:100D50007F01109282011092810180938301809320
:100D6000840181EC80937E010E944C05FC0181810D
:100D700090917801482F490F5527551F483051054C
:100D80009CF5A281B381109709F524E731E0338304
:100D900022832081209376018093770180917901CD
:100DA000820F808320917A01A22FB0917B018A2F3C
:100DB000821B8917C8F481813D91C82FD0E0C050B3
:100DC000DF4F38838F5F8183F2CFD90118962D9141
:100DD0003C91199721153105C1F724E731E01996A7
:100DE0003C932E931897D5CF81E08093850184E7BB
:100DF00091E0DF91CF910895CF93DF93EC010E94B2
:100E00008A06AE014C5F5F4F28E030E062E0DF9180
:100E1000CF910C94B405CF92DF92FF920F931F9362
:100E2000CF93DF938C01F42EE62FF0E0EE0FFF1F3F
:100E3000E854FF4FC590D490D801ED91FC91048403
:100E4000F585E02D6C2DC8010995EC01892B11F475
:100E5000F11070C0D0FE0CC0D801ED91FC9104845B
:100E6000F585E02D4F2D60EEC8010995C82BD92BD3
:100E7000D1FE0CC0D801ED91FC910484F585E02DE4
:100E80004F2D61EEC8010995C82BD92BD2FE0CC09D
:100E9000D801ED91FC910484F585E02D4F2D62EE93
:100EA000C8010995C82BD92BD3FE0CC0D801ED91F0
:100EB000FC910484F585E02D4F2D63EEC801099562
:100EC000C82BD92BD4FE0CC0D801ED91FC91048421
:100ED000F585E02D4F2D64EEC8010995C82BD92B5F
:100EE000D5FE0CC0D801ED91FC910484F585E02D70
:100EF0004F2D65EEC8010995C82BD92BD6FE0CC025
:100F0000D801ED91FC910484F585E02D4F2D66EE1E
:100F1000C8010995C82BD92BD7FE0CC0D801ED917B
:100F2000FC910484F585E02D4F2D67EEC8010995ED
:100F3000C82BD92BCE01DF91CF911F910F91FF903C
:100F4000DF90CF900895FF920F931F93CF93DF937D
:100F5000EC01F62E41E00E940B078C01892BA9F0D1
:100F6000E881F9810284F385E02DCE01099540E006
:100F70006F2DCE010E940B07892B39F0E881F98192
:100F80000284F385E02DCE010995C801DF91CF9150
:100F90001F910F91FF900895089590E080E00895CB
:100FA0000F931F93CF93DF93EB018A010E948A0670
:100FB0009801AE0164E0DF91CF911F910F910C94E5
:100FC000B405EAE2F2E030E020E0419151912F5F78
:100FD0003F4F452B79F4220F331FF901E85DFD4F98
:100FE0009183808348E050E06AE272E088E292E018
:100FF0000C94D0072430310541F7F4CFE8E2F2E059
:10100000228133812817390711F413821282329614
:1010100022E0E033F207A1F748E050E06AE272E034
:1010200088E292E00C94D0070895CF92DF92EF927D
:10103000FF920F931F93CF93DF936C017B018A0183
:10104000E90182E00E94FF0221E0019709F020E01F
:10105000F601208383E00E94FF0221E0019709F05E
:1010600020E0F701208384E00E94FF0221E0019745
:1010700009F020E0F801208385E00E94FF0221E0D2
:10108000019709F020E02883DF91CF911F910F9104
:10109000FF90EF90DF90CF900895EF92FF920F9323
:1010A0001F93CF93DF938251E82FF0E0E455FF4F79
:1010B000E49190917B008E2F880F880F80729F7D26
:1010C000892B80937B00E770E064E0937C00809143
:1010D0007A00806480937A0080917A0086FDFCCF4C
:1010E000C0917800D0917900809172019091730144
:1010F0009E01281B390BC90137FF03C091958195CB
:1011000091090B970CF446C024E130E0DE010E9407
:101110001B0F2FEF33E040E050E00E94B10E890139
:101120009A010A50110921093109F12CE12C1016FC
:101130001106F4F489EE90E00E94E10789EE90E058
:101140000E94FE073FEFE31AF30AE016F10694F35C
:10115000D0937301C093720162E370E080E090E08D
:10116000DF91CF911F910F91FF90EF900C9493031B
:10117000119501951109E016F10654F78AEE90E0F9
:101180000E94E1078AEE90E00E94FE078FEFE81AC6
:10119000F80AF1CFDF91CF911F910F91FF90EF905F
:1011A0000895FC019C01285F3F4F90E080E044815E
:1011B0004111019614823196E217F307C1F70895A1
:1011C000CF93DF93DC0190E2960F9830B0F4149641
:1011D0008C91149721E030E001C0220F9A95EAF734
:1011E000442341F0282B14962C9381E090E0DF916A
:1011F000CF91089520952823F6CFFD0136964423FC
:10120000D1F0CD010C96EF012991621771F3C81747
:10121000D907D1F790E080E02191211105C0A80FF6
:10122000B91F16966C93E1CF019686309105A1F710
:1012300090E080E0DCCF90E080E02191621305C077
:10124000A80FB91F16961C92D0CF01968630910533
:10125000A1F7EECFCF93DF9341E0682F8EE092E0CD
:101260000E94E008EC01892B21F08EE092E00E94C0
:10127000FC06CE01DF91CF910895FC010190002082
:10128000E9F73197AF01481B590BBC018EE092E0A2
:101290000C941F05CF93DF9300D000D0CDB7DEB7FD
:1012A0009E012C5F3F4FAE014D5F5F4FBE016E5FF1
:1012B0007F4FCE0101960E9415088981882321F075
:1012C0008FE691E00E943D098A81882321F084E61F
:1012D00091E00E943D098B81882321F083E691E013
:1012E0000E943D098C81882399F080EE0E942A0992
:1012F00087E00E942A0986E10E942A098EE092E096
:101300000E94D108892B21F08EE092E00E94FC0619
:1013100082E190E00E944D0883E190E00E944D0838
:101320000F900F900F900F90DF91CF910895CF9372
:10133000DF9300D000D0CDB7DEB79E012C5F3F4FCA
:10134000AE014D5F5F4FBE016E5F7F4FCE010196D4
:101350000E9415088981882321F086E691E00E9489
:101360003D098A81882321F086E691E00E943D09AB
:101370008B81882321F08AE691E00E943D098C81CF
:10138000882321F08EE691E00E943D0983E190E000
:101390000E944D080F900F900F900F90DF91CF910A
:1013A00008950C94D20F0C94D20F1F920F920FB687
:1013B0000F9211242F933F938F939F93AF93BF93DB
:1013C0008091A6019091A701A091A801B091A901D7
:1013D0003091A50123E0230F2D3758F50196A11D6B
:1013E000B11D2093A5018093A6019093A701A0931E
:1013F000A801B093A9018091AA019091AB01A0919D
:10140000AC01B091AD010196A11DB11D8093AA015F
:101410009093AB01A093AC01B093AD01BF91AF919C
:101420009F918F913F912F910F900FBE0F901F9022
:10143000189526E8230F0296A11DB11DD2CF1F9249
:101440000F920FB60F9211248F939F938091E1001A
:101450009091E100937F9093E10083FF0FC0109281
:10146000E90091E09093EB001092EC0092E39093EE
:10147000ED001092AF0198E09093F00082FF22C03F
:1014800093E09093E9009091F200992319F09AE388
:101490009093E80090919E01992341F090919E01D4
:1014A000915090939E01911101C05D9A9091AE016F
:1014B000992341F09091AE0191509093AE0191111A
:1014C00001C0289A84FF18C08091E2008E7E81605E
:1014D0008093E2008091E1008F7E8093E100809113
:1014E0009F018E7E806180939F019F918F910F90CD
:1014F0000FBE0F901F90189580FFF7CF8091E200EC
:101500008E7E80618093E2008091E1008E7E8093E8
:10151000E10080919F018E7E8160E5CF1F920F9246
:101520000FB60F921124CF92DF92EF92FF920F939A
:101530001F932F933F934F935F936F937F938F935B
:101540009F93AF93BF93EF93FF93CF93DF93CDB769
:10155000DEB76C97DEBFCDBF1092E9008091E80046
:1015600083FF25C068E0CE0145960E94120582EFF8
:101570008093E8008D8987FF39C09091E80090FF43
:10158000FCCF982F907609F034C19E894F89588DF1
:101590002F89F88C911131C0803861F58091A001BC
:1015A0008093F1001092F1008EEF8093E8006C962A
:1015B0000FB6F894DEBF0FBECDBFDF91CF91FF9184
:1015C000EF91BF91AF919F918F917F916F915F91BB
:1015D0004F913F912F911F910F91FF90EF90DF90CE
:1015E000CF900F900FBE0F901F9018959EEF909385
:1015F000E800C7CF1092F100D5CF913059F4811196
:10160000D3CF4130510581F68091A0018D7F809329
:10161000A001CACF933049F48111C6CF41305105A2
:1016200019F68091A0018260F2CF953041F480914B
:10163000E80080FFFCCF20682093E300B5CF963010
:1016400009F0A9C00B8D1C8D22E01092E9001092C8
:101650009C0110929B01F2122EC010929A011092DE
:1016600099010E9460051F8299E09983FA8291E0B6
:101670009E8390EA98879AEF998720919B013091F9
:101680009C01275F3F4F3C832B838D831092E900A1
:1016900010929C0110929B0110939A010093990162
:1016A00049E050E0BE016F5F7F4F80E00E9426045A
:1016B0000E94600579CF10939A01009399010E94CE
:1016C0004C05DC0112960D911C910115110509F4D0
:1016D00051C1D801ED91FC910480F581E02DBE014E
:1016E0006B5E7F4FC8010995009709F03EC1F80174
:1016F00000851185EACFF3E0FF120EC08F898823A1
:1017000009F440C0823061F440E860E18CE193E08C
:101710000E94F303811148CF81E28093EB0047CF11
:10172000813029F440E86BE080E193E0F1CF833031
:1017300099F70E944C05DC011296ED90FC908E0109
:101740000F5F1F4F6801E114F10479F0D701ED91AB
:10175000FC910680F781E02DB801C7010995080FBB
:10176000111DF701E084F184EECFD8011C92F6013F
:1017700001900020E9F73197BF016C197D0940E025
:10178000C601C6CF6AEF72E0FB01449150E080E8E9
:101790000E94260409CF973009F4BECF983021F477
:1017A00081E08093F10000CF993009F0FDCE837085
:1017B00009F0B2CFE1E0F1E081E031E096E3219180
:1017C000222371F08093E9003093EB00DF01119741
:1017D0002C912093EC009093ED008F5F873079F788
:1017E0008EE78093EA001092EA008F898093AF0120
:1017F000DBCE8B8D9C8D1092E90010929C01109293
:101800009B0190939A0180939901898D811192C0D7
:101810008E899D89913A49F4813209F07DCF47E064
:1018200050E06BE071E080E0B3CF913209F074CF0B
:10183000833269F48F89988DB0E0A0E0809307012E
:1018400090930801A0930901B0930A01ADCE8032B4
:1018500069F48091E80082FFFCCF67E08BE091E0C3
:101860000E9412058BEF8093E8009ECE823209F031
:101870009BCE8F8980931201EEEFFFE785919491C3
:101880008B3F9C4D51F1E0E0F8E080910B0190918D
:101890000C01A0910D01B0910E01803B9440A10577
:1018A000B105F1F48091120180FD1AC0EE3F8AE08B
:1018B000F80789F587E797E7918380838091600037
:1018C00080939D0188E19BE00FB6F894A8958093E2
:1018D00060000FBE9093600067CEEEEFFAE0D5CFC8
:1018E000808191818737974709F05ECEA8958091D6
:1018F000600088618093600080919D01809360000A
:10190000EE3F2AE0F20789F08091FE0A9091FF0AEB
:101910009183808349CE808191818737980751F2E6
:101920009093FF0A8093FE0AC5CF1092FF0A10928F
:10193000FE0A3ACE0E944C05DC0112960D911C91D4
:101940000115110509F4E8CED801ED91FC91019043
:10195000F081E02DBE016B5E7F4FC80109958111BA
:1019600023CEF80100851185EBCF181619060CF46B
:101970001BCED2CEF1E0FF12BECE6EEF72E004CFEE
:101980001092B3011092B20188EE93E0A0E0B0E0B3
:101990008093B4019093B501A093B601B093B701C1
:1019A00089E291E09093B1018093B0018FEF9FEFB6
:1019B0009093BD018093BC0110921102109210020D
:1019C0008BE391E090930F0280930E0280910602C8
:1019D000811113C0109201021092000284EB93E077
:1019E00090930302809302028BE390E090930502B0
:1019F0008093040281E0809306020E948A06FC0123
:101A0000A385B485109709F060C080E092E09487C8
:101A10008387858596852091040230910502820F87
:101A2000931F968785878DE491E090932902809398
:101A3000280280912002811113C010921B02109283
:101A40001A028FEE93E090931D0280931C0289E1AD
:101A500090E090931F0280931E0281E08093200209
:101A60000E948A06FC01A385B4851097C9F58AE116
:101A700092E0948783878585968520911E02309118
:101A80001F02820F931F968785871092370210924C
:101A9000360282E090E00E94360F2DE531E0FC0135
:101AA00031832083909333028093320282E090E06E
:101AB0000E94360F23E531E0FC01318320839093AF
:101AC0003502809334020895DC018D919C91119729
:101AD0000097D1F780E092E08D939C939ACFDC0140
:101AE0008D919C9111970097D1F78AE192E08D93A7
:101AF0009C93C1CF789484B5826084BD84B58160A5
:101B000084BD85B5826085BD85B5816085BD8091C8
:101B10006E00816080936E00109281008091810040
:101B20008260809381008091810081608093810038
:101B3000809180008160809380008091910082601C
:101B400080939100809191008160809391008091B9
:101B500090008160809390008091C10084608093A8
:101B6000C1008091C10082608093C1008091C1005A
:101B700081608093C1008091C30081608093C30025
:101B80008091C00082608093C0008091C20081601B
:101B90008093C20080917A00846080937A00809163
:101BA0007A00826080937A0080917A0081608093CD
:101BB0007A0080917A00806880937A001092AF0159
:101BC0001092A00110929F018091D70081608093B4
:101BD000D70080EA8093D80089B5806189BD89B536
:101BE000826089BD09B400FEFDCF61E070E080E055
:101BF00090E00E9493038091D8008F7C8061809355
:101C0000D8008091E000807F8093E0008091E10027
:101C10008E7E8093E1008DE08093E200559A209AB9
:101C200082E00E94300283E00E94300284E00E9441
:101C3000300285E00E94300284E00E9430028EE093
:101C400092E00E94D1088EE092E00E94FC06EAE257
:101C5000F2E088E0DF011D928A95E9F748E050E064
:101C6000BF0188E292E00E94D00702E010E0C0E0ED
:101C7000D0E084E00E94FF02892BD9F12FB7F894BD
:101C80008091A6019091A701A091A801B091A9010E
:101C90002FBF4091A1015091A2016091A3017091C9
:101CA000A401841B950BA60BB70B853F9140A105A2
:101CB000B105F8F080913602909137020196B80193
:101CC0000E94010F90933702809336022FB7F89449
:101CD0008091A6019091A701A091A801B091A901BE
:101CE0002FBF8093A1019093A201A093A301B09371
:101CF000A401E0913602F0913702EE0FFF1FEE5C77
:101D0000FD4F80819181DC01ED91FC910190F0818A
:101D1000E02D099568EC70E080E090E00E9493036C
:101D2000209709F4A6CF0E940000A3CF8091320231
:101D300090913302009739F0DC01ED91FC91048021
:101D4000F581E02D0995809134029091350200973C
:101D500039F0DC01ED91FC910480F581E02D0994CE
:101D60000895052E97FB1EF400940E94C80E57FD9F
:101D700007D00E94D00E07FC03D04EF40C94C80E7E
:101D800050954095309521953F4F4F4F5F4F0895A7
:101D900090958095709561957F4F8F4F9F4F0895D7
:101DA000A1E21A2EAA1BBB1BFD010DC0AA1FBB1F5F
:101DB000EE1FFF1FA217B307E407F50720F0A21BD1
:101DC000B30BE40BF50B661F771F881F991F1A943E
:101DD00069F760957095809590959B01AC01BD0168
:101DE000CF010895A29FB001B39FC001A39F700DC2
:101DF000811D1124911DB29F700D811D1124911D13
:101E0000089597FB072E16F4009407D077FD09D0AC
:101E10000E94220F07FC05D03EF4909581959F4FBC
:101E20000895709561957F4F0895EE0FFF1F0590FF
:101E3000F491E02D09940E94F20EB7FF0895821BE1
:101E4000930B0895AA1BBB1B51E107C0AA1FBB1F20
:101E5000A617B70710F0A61BB70B881F991F5A9536
:101E6000A9F780959095BC01CD0108950F931F931C
:101E7000CF93DF938230910510F482E090E0E091FF
:101E80003A02F0913B0230E020E0B0E0A0E0309771
:101E900099F42115310509F44AC0281B390B243067
:101EA0003105D8F58A819B816115710589F1FB01A6
:101EB00093838283FE0111C040815181028113818D
:101EC00048175907E0F04817590799F4109761F03F
:101ED00012960C93129713961C933296CF01DF91B2
:101EE000CF911F910F91089500933A0210933B02F6
:101EF000F4CF2115310551F04217530738F0A901ED
:101F0000DB019A01BD01DF01F801C1CFEF01F9CF7B
:101F100090933B0280933A02CDCFFE01E20FF31F74
:101F2000819391932250310939832883D7CF20910F
:101F3000380230913902232B41F420911501309160
:101F40001601309339022093380220911301309109
:101F500014012115310541F42DB73EB74091170109
:101F600050911801241B350BE0913802F091390291
:101F7000E217F307A0F42E1B3F0B2817390778F060
:101F8000AC014E5F5F4F2417350748F04E0F5F1FBF
:101F90005093390240933802819391939FCFF0E0A0
:101FA000E0E09CCFCF93DF930097E9F0FC013297FC
:101FB00013821282A0913A02B0913B02ED0130E00F
:101FC00020E01097A1F420813181820F931F20918E
:101FD0003802309139022817390709F061C0F093AF
:101FE0003902E0933802DF91CF910895EA01CE17CC
:101FF000DF07E8F54A815B819E0141155105B1F784
:10200000E901FB83EA8349915991C40FD51FEC176D
:10201000FD0761F4808191810296840F951FE9018B
:1020200099838883828193819B838A83F0E0E0E0B7
:1020300012968D919C9113970097B9F52D913C9133
:102040001197CD010296820F931F20913802309193
:1020500039022817390739F6309751F510923B02AB
:1020600010923A02B0933902A0933802BCCFD383C6
:10207000C28340815181840F951FC817D90761F42D
:102080004E5F5F4F88819981480F591F518340836C
:102090008A819B81938382832115310509F0B0CF1A
:1020A000F0933B02E0933A029ECFFD01DC01C0CFEA
:1020B00013821282D7CF12E0C5E0D2E004C0FE0145
:1020C0000E94150F2196C630D107C9F7F894FFCFAB
:1020D00000C18081000000FFFFFFFF00E100000061
:1020E00000000000003C0280000000000091053F5D
:1020F000060406E905000000008202FC045D049865
:1021000002E502A302C10200000000A3071F05CDE3
:1021100007CC07D108FC06E00800000000D007004B
:102120000000004A091408D10900000000970914B2
:1021300008D309717100617364007177650077716C
:02214000650038
:00000001FF
